:020000040000FA
:04000000C4EF07F052
:08000800056ED8CF06F0E0CF31
:1000100007F00001E9CF0DF0EACF08F0E1CF09F0D9
:10002000E2CF0AF0D9CF0BF0DACF0CF0F3CF14F017
:10003000F4CF15F0FACF16F000C00FF001C010F0A9
:1000400002C011F003C012F004C013F09DAA2CEFFF
:1000500000F09EBA35EF07F0A0AA32EF00F0A1BA87
:10006000D9EF06F00FC000F010C001F011C002F08F
:1000700012C003F013C004F00DC0E9FF08C0EAFF8E
:10008000088E09C0E1FF0AC0E2FF0BC0D9FF0CC017
:10009000DAFF14C0F3FF15C0F4FF16C0FAFF0550D5
:1000A00007C0E0FF06C0D8FF1000F76ABA0FF66E6F
:1000B000000EF7220900F5501200040301000000B1
:1000C00000000000000000000000F76ADA0FF66E82
:1000D000000EF7220900F550120004000100000094
:1000E00000000000000000000000F76AFA0FF66E42
:1000F000000EF7220900F5501200400008004000F1
:1001000000000000000000000000000000000000EF
:100110000000000000000000000008AE03D0F2CF95
:100120000EF0F29EF76A3C0FF66E010EF722090000
:10013000F55008AE02D00EBEF28E12004000000054
:10014000400000000000000000000000000000006F
:10015000000000000000000000000000F76A6C0FC3
:10016000F66E010EF7220900F55012000902430055
:10017000020100C03209040000010202010005244E
:1001800000100104240202052406000105240100D8
:1001900001070581030800FA09040100020A0000B2
:1001A00000070502024000FA070582024000FA003B
:1001B000F76AC00FF66E010EF7220900F550120023
:1001C0000200F76AD20FF66E010EF7220900F55011
:1001D000120012011001020000406104330000010E
:1001E00001020001F76AF40FF66E010EF722090012
:1001F000F5501200040309040803550050004300A1
:1002000026035200450041004C00200054004900E4
:100210004D00450020005300590053005400450094
:100220004D00530020006D9269946894E4EF06F04D
:100230006A6A6892EDEF06F02E6A2D6A250E2C6E22
:10024000800E2B6E2F6A306A080E316E816B7C93A4
:10025000336A326A7D6B7E917C81000C9A6B9A5175
:1002600001080AE3036A9A51290FE96E000E032080
:10027000EA6EEF6A9A2BF3D7DFDF1C6A010E1D6E60
:100280001B6A000C010EA36FA3510F080EE3700E42
:10029000A325016E0F0E036ED8B0032A01C0E9FF3B
:1002A00003C0EAFFEF6AA32BEFD7206A1F6A000C96
:1002B000400E0401016F050E036F026B880E006F84
:1002C000046B050E076F400E066F0001000C6A6A92
:1002D000686A9F0E6B6E390E696E6E6ABFDFD2DF81
:1002E000160E706E68A602D06896FCD76D98E0DF97
:1002F000030E216EF3EF06F0698468986D82F9EFC2
:1003000006F0689CFFEF06F070A002D0D1DF70907D
:10031000689A05EF07F09EC022F0000CFF0E226ED7
:10032000000C9C6B285235E09C513F0832E31E5074
:1003300005E0020A0DE0010A15E01ED0036A27500D
:10034000F2CF9EF0F29E0ADF9EBFF28E9D6F14D018
:10035000036A2750F2CF9EF0F29E44DF9EBFF28EDA
:100360009D6F0AD0036A2750F2CF9EF0F29E29DFDC
:100370009EBFF28E9D6F00D0272A28069C519C2B91
:10038000036A400FE96E050E0320EA6E9DC0EFFF81
:10039000C9D7285204E19C51400801E01B6A9CC067
:1003A0009EF0B9DF000C276A1E6A05010351010A9D
:1003B000000105E0030A08E0010A09E01FD0120E5F
:1003C000286E030E1E6E1CD0430E286E19D0020E2E
:1003D0001E6E036A05010251230FE96E000E032011
:1003E000EA6EEFCF27F0036A2750F2CF9BF0F29E20
:1003F0000001F8DE9BBFF28E286E02D08FDF0CD09A
:100400000501075305E12850065D02E206C528F004
:10041000010E1B6E000185DF26EF03F09B5304E104
:10042000040E216E2FDFC1D0050E216E9E6F800E4F
:100430009D6F010E9C6F9C510F08D8A0B6D09F6B8A
:10044000036A9C51F2CFA3F0F29E3FDEA3BFF28E6F
:10045000000A51E0040E9F6FD8909C35036AF2CFDA
:10046000A3F0F29E5ADE0900F5CF03F0A3BFF28E8F
:10047000A06F03C0A1F09C51080DF350010F016E55
:10048000040E036ED8B0032A01C0E9FF03C0EAFFDF
:10049000A0C0EFFF9C51080DF350020F016E040E37
:1004A000036ED8B0032A01C0E9FF03C0EAFF9EC073
:1004B000ECFFED529DC0EFFFD8909C35036AF2CF60
:1004C000A3F0F29E2ADE0900F5CF03F0A3BFF28E5F
:1004D0009D2703509E23880EA26FA1B1A281A1B3D4
:1004E000A2839C51080DF3CF01F0040E01C0E9FF77
:1004F000EA6EA2C0EFFF036A9C51F2CFA3F0F29E16
:10050000D4DDA3BFF28E000A31E09F839C51080D19
:10051000F350060F016E040E036ED8B0032A01C01B
:10052000E9FF03C0EAFF9EC0ECFFED529DC0EFFF64
:10053000D8909C35036AF2CFA3F0F29ED6DD090075
:10054000F5CF03F0A3BFF28E9D2703509E239C514D
:10055000080DF350040F016E040E036ED8B0032A89
:1005600001C0E9FF03C0EAFF400EEF6E9F5106088D
:1005700002E10E0E9F6F036A9C51F2CFA3F0F29E30
:1005800094DDA3BFF28E020801E09F89700E9C25C6
:10059000016E0F0E036ED8B0032A01C0E9FF03C03D
:1005A000EAFF9FC0EFFF9C2B46D720EF03F0050129
:1005B000015100010DE0010A14E0020A1EE0060AE2
:1005C00027E0030A2CE00E0A2BE0010A2FE03CD0C2
:1005D0001DC040F50501416B020E00019E6F9BDEC0
:1005E00035D00501022D06D0010E1D1600019E6BAF
:1005F00092DE02D0000192DE29D00501022D05D045
:100600001D8200019E6B87DE02D0000187DE1ED0B6
:10061000020E1B6E02C526F09E6B7DDE17D0C3D680
:100620001CC040F5010E9E6F76DE10D00501025110
:10063000010808E302C51CF002C59BF00001EED6DC
:100640009E6B69DE000102D069DE00D09EEF04F0EF
:100650001CC09BF005010151000105E00A0A0BE0F6
:10066000010A2BE03CD00501406B416B020E0001FA
:100670009E6F51DE36D09B531EE0010E9B5D036AD8
:10068000F2CF9DF0F29E94DD9DBFF28E016E0501CA
:10069000045DD8A002D000010ED0036A0451290FD6
:1006A000E96E000E0320EA6EEFCF40F5010E000167
:1006B0009E6F31DE01D032DE14D09B530EE0036A10
:1006C00005010451290FE96E000E0320EA6E02C5F0
:1006D000EFFF00019E6B1FDE01D020DE02D01EDE88
:1006E00000D09EEF04F09C919BBF9C819B9F9CA19E
:1006F00010D0036A9B51F2CF9DF0F29ED6DC9DBFD5
:10070000F28E000A02E1000E01D0010E016E10D03F
:100710000FD0036A9B51F2CF9DF0F29ED6DC9DBFB5
:10072000F28E000A02E1000E01D0010E016E00D02F
:100730000AEF04F09C919BBF9C819B9F9CA110D0D1
:100740009B51080DF350040F016E040E036ED8B0D8
:10075000032A01C0E9FF03C0EAFF880EEF6E09D04B
:100760009B51080DF3CF01F0040E01C0E9FFEA6EC2
:10077000EF6A19EF04F09C919BBF9C819B9F9CA109
:1007800010D09B51080DF350040F016E040E036E40
:10079000D8B0032A01C0E9FF03C0EAFF840EEF6E60
:1007A0000AD09B51080DF3CF01F0040E01C0E9FF00
:1007B000EA6E840EEF6E1FEF04F09C919BBF9C814C
:1007C0009B9F9CA110D09B51080DF350040F016E0C
:1007D000040E036ED8B0032A01C0E9FF03C0EAFF8C
:1007E000EFCF9DF00AD09B51080DF3CF01F0040E1E
:1007F00001C0E9FFEA6EEFCF9DF09DAF02D09DB53D
:1008000002D0000E01D0010E016E29EF04F004C5E4
:100810009BF069D7015229E005010151010A00014D
:1008200005E0020A09E0030A0DE01DD004C59BF0B3
:1008300081D79E6B70DD19D004C59BF09CD79E6B51
:100840006ADD13D00501406B416B04C59BF00001CC
:10085000B4D7015204E0010E0501406F0001020E01
:100860009E6F59DD02D05ADD00D09EEF04F0FE0EDF
:10087000226E000C0501042D01D002D0045348E182
:10088000015100010BE0010A0DE0210A1CE0010A00
:100890001FE0030A2EE0010A31E037D0010E826F1B
:1008A000E6DF35D0050EEA6E400EE96EE26A340EE0
:1008B000E16E080E016EE6CFEEFF012EFCD706C5F5
:1008C0009EF029DD24D0020E826F7C83D0DF1FD002
:1008D000050EEA6E400EE96EE26A2B0EE16E070E1F
:1008E000016EE6CFEEFF012EFCD7070E9E6F13DDE3
:1008F0000ED002C581F09E6B0EDD09D002C533F02B
:1009000003C532F09E6B07DD02D008DD00D0050183
:1009100000019EEF04F01B6A050100517F0B0001EE
:1009200007E0010A06E0030A05E0230A04E004D018
:100930003ED68ED66CD79ED7F1DC00D084EF06F081
:100940009B51080DF3CF01F0040E01C0E9FFEA6EE0
:10095000EFCF9DF09C51020806E19DAD02D09C6B4B
:1009600002D0010E9C6F9C51030812E1840E9D6F12
:100970009B51080DF350040F016E040E036ED8B0A6
:10098000032A01C0E9FF03C0EAFF840EEF6E09D01D
:100990009C2D03D0C80E9D6F04D09C5302E1880E9D
:1009A0009D6F036A010E026E9B51006E05E0D890A8
:1009B00002360336002EFBD70250FF0A006EFF0EF0
:1009C000031A00501F1603502016D8909B35036A57
:1009D000F2CFA0F0F29E8DEC00F00900F5CF03F00D
:1009E000A0BFF28E9E6F03C09FF09B51080DF35085
:1009F000010F016E040E036ED8B0032A01C0E9FF97
:100A000003C0EAFF9EC0EFFF9FB19D819FB39D830E
:100A10009B51080DF3CF01F0040E01C0E9FFEA6E0F
:100A20009DC0EFFF000CA851080DF350040F016E9C
:100A3000040E036ED8B0032A01C0E9FF03C0EAFF29
:100A4000EFCFACF0ACBF5BD0A851080DF350050F51
:100A5000016E040E036ED8B0032A01C0E9FF03C083
:100A6000EAFFA9C0EFFFAB51020816E1A851080D3B
:100A7000F350040F016E040E036ED8B0032A01C0B8
:100A8000E9FF03C0EAFFEFCFACF0ACAD02D0AB6B37
:100A900002D0010EAB6F13D0AB51040810E1A85186
:100AA000080DF3CF01F0040E01C0E9FFEA6EEFCFAD
:100AB000ACF0ACAD03D0010EAB6F01D0AB6BAB2D86
:100AC00003D0C80EAC6F04D0AB5302E1880EAC6FFC
:100AD000AAB1AC81AAB3AC83A851080DF350040F9E
:100AE000016E040E036ED8B0032A01C0E9FF03C0F3
:100AF000EAFFACC0EFFF010E016E03D000D0000E84
:100B0000016E000C8251010A03E0030A12E022D0B8
:100B1000EA6A340EE96E050EE26EE16A080E016EB5
:100B2000E6CFEEFF012EFCD79E6B8BEC01F0826BC3
:100B300015D0EA6A2B0EE96E050EE26EE16A070E29
:100B4000016EE6CFEEFF012EFCD7826B9E6B8BEC25
:100B500001F004D0826B58EC01F000D0D0EF05F02A
:100B60009C51080DF350010F016E040E036ED8B0B6
:100B7000032A01C0E9FF03C0EAFF036AEFCF01F0D7
:100B800003C002F0C9EF05F07E81806B020E9C6FFE
:100B9000E7D701C07FF0D5EF05F09B5302E1B2D754
:100BA00014D09B51020802E1EFD70FD0036A010E67
:100BB000026E9B51006E05E0D89002360336002E7F
:100BC000FBD702501F1203502012000C9CC06EFF76
:100BD0009C5303E0040E216E02D0020E216EF6EF4C
:100BE00005F01C6A1B6A26C09CF0F0D76EEF06F079
:100BF0009D51080DF350040F016E040E036ED8B022
:100C0000032A01C0E9FF03C0EAFFEFCFA5F0A5BFAB
:100C10003FD09D51080DF350060F016E040E036E78
:100C2000D8B0032A01C0E9FF03C0EAFFECCF03F00C
:100C3000ED52EFCFA6F003C0A7F0A46BA36BA451B5
:100C4000A15D1AE303E1A051A35D16E29EC0E9FF96
:100C50009FC0EAFFEFCFAAF0A7C0EAFFA6C0E9FF56
:100C6000AAC0EFFFA62BD8B4A72B9E2BD8B49F2BDE
:100C7000A32BD8B4A42BE3D79DC0A8F0A1C0AAF0A1
:100C8000A0C0A9F0A2C0ABF0CEDE015003D000D0CE
:100C9000000E016E5AEF06F07D530DE07C91020EBE
:100CA0009D6F9F6B3C0E9E6FA16B7DC0A0F0020EEE
:100CB000A26F9ED77D6B000C7D5302E0EDDF01D06B
:100CC0007C8173EF06F09B530AE11B2C03D091EC5F
:100CD00001F004D01B50020801E183D704D09B51DE
:100CE000020801E1E9D7000C6C309A6F9A339A330D
:100CF0001F0E9A176C523BE1040100513C0B340863
:100D00001BE1046B000107D6223C05D09B6B030E50
:100D10009C6F16DE0ED09B6B020E9C6F11DE225074
:100D2000FE0807E0A86BAA6B22C0A9F0040EAB6F07
:100D30007ADE6D9819D0040100513C0B040815E1CE
:100D400000019B6B2ADF9B6B020E9C6FF9DD22502A
:100D5000FE080AE0223C01D007D0A86BAA6B22C093
:100D6000A9F0010EAB6F5FDE040120D000016C50D2
:100D7000040812E1FF0E226E9B6BA5DF223C01D01E
:100D800008D0A86BAA6B22C0A9F0020EAB6F4BDE95
:100D900002D058EC01F009D06CB404D09AC09BF09A
:100DA000FCDE03D09AC09BF08EDF040100010AEF45
:100DB00007F0215201E12FD068522DE068A404D041
:100DC00069A402D013EF01F06DA201D024D068A273
:100DD00004D069A202D018EF01F068A004D069A085
:100DE00002D067EF01F068A804D069A802D07CEFB8
:100DF00001F068AC04D069AC02D081EF01F068AAC0
:100E000004D069AA02D084EF01F068A604D069A6D4
:100E100002D06AD76896A19A32EF00F09C91F2BE98
:100E20009C81F29E7D513F0802E23F0E7D6F7D5115
:100E30007D2B036A3C0FE96E000E0320EA6E9BC017
:100E4000EFFFF29E9CB1F28E7CA101D025DF33EF43
:100E500007F07D513F0804E27CA101D01DDFF9D7E6
:100E60009AC09BF0DBD740EF07F09EAA09D09EAA5C
:100E7000FED7AECF87F07CA503D087C09AF0E9D724
:100E80009E9A32EF00F06D6A696A080E6F6E945098
:100E90003009946E216A186AF2BE188EF29E2EEC0A
:100EA00001F018BEF28E206A1F6A7AEF07F0186A06
:100EB000F2BE188EF29E2EEC01F018BEF28E6D6A14
:100EC000140E6F6E696A6D86010E216E6BEF07F06E
:100ED0006DB601D0ECD7212C0BD06DBA09D0686A61
:100EE000696AA08AC00EF212110E696E020E216E9E
:100EF000000CC9D7EDDF21500208FCE116EF08F025
:100F0000EA6A930EE96EEF500EE00F0E016E006A72
:100F1000002EFED7012EFBD78F0E006E002EFED7BF
:100F20000000EF2EF2D7000C010E926F1CC093F060
:100F3000946B7CB3942B81A102D07C8501D07C95ED
:100F400028EF08F07EB101D0FDD78051802B036AD5
:100F5000880FE96E050E0320EA6EEFCF92F07F5105
:100F6000805D0BE37E91186AF2BE188EF29E020E2F
:100F70009B6F9C6FE5DC18BEF28E92C001F0000CF6
:100F80009EA8FED7AD6E000CF86AD09E088EEA6A65
:100F9000E96AB896190EAF6EA60EAC6E900EAB6EE7
:100FA000C150C00B0F09C16E070EB46E196A1A6AE0
:100FB000216A236A040E246E0C0E256E286A7D6B4E
:100FC000826B7C95896B2A0E8A6F430E8B6F780E2D
:100FD0008C6F520E8D6F630E8E6F8F6B906B919135
:100FE000806A816A826AC150C00B0F09C16EC290CB
:100FF000D190D56ACD6A000ECA6E000ECB6EB16A72
:10100000070EB46E9250926E270E006E002EFED721
:1010100000D0B450A19CB56A9484BD6A9482BA6A27
:101020009D8AC00EF2121CEC01F063D73F0E926E47
:10103000FB0E936EF18EBF0E946E8184896B020E4F
:10104000926FFA0E936F5CDF922FFBD741DF6CD764
:101050007EA151D077DF01C088F0885191DF8A519D
:10106000885D04E1895301E1892B45D08B51885D6E
:1010700006E1892D02D0892B01D0896B3CD08C519F
:10108000885D07E18951020802E1892B01D0896B53
:1010900032D08D51885D07E18951030802E1892B27
:1010A00001D0896B28D08E51885D24E189510408D4
:1010B00021E1896B9191906B8F6B9051270812E31E
:1010C00003E18F510F080EE37EA107D03BDF01C083
:1010D00088F0885155DF919105D091818F2BD8B43C
:1010E000902BEBD791A105D08194320E936F08DF3E
:0A10F000818401D0896BAAD70300A8
:020000040030CA
:0E000000240E3E1E008381000FC00FE00F4053
:00000001FF
;PIC18F2550
;CRC=9F24  CREATED="20-jul-14 00:31"
