:020000040000fa
:08000000a20904000000000049
:020000040000fa
:10000800fc090000fc090000fc090000fc090000d4
:10001800fc090000fc090000fc090000fc090000c4
:10002800fc090000fc090000fc090000fc090000b4
:10003800fc090000fc090000fc090000fc090000a4
:020000040000fa
:020000040000fa
:10080000900188008100780000000600003b88000d
:1008100050052000303b8800a00a2000303b8800b3
:1008200061e7a800000000000000000061e7af00e1
:10083000feff370000000600900188008308bb001f
:100840008288bb0000000600900188001100ba00f9
:100850009180ba0000000600000c040000000000b7
:10086000000006003200f800023b8800900188007a
:100870008108bb0050052000303b8800a00a200002
:10088000303b880061e7a800000000000000000085
:1008900061e7af00feff37003200f90000000600fc
:1008a0002006fa0084022000343a8800243a8000ae
:1008b0000460a1000470a100243a8800253a800059
:1008c00004fe2f0004826200243a88000002eb003c
:1008d000443a880040a7a90000000000153a8000b3
:1008e0000402200004826200e00f5200fbff32008d
:1008f0005702070048020700c7c2a900cbc2a800e0
:1009000069024700040078006d0107001e4a90004c
:100910000402fb006123b900e4ff2f00f5ff2f0064
:100920000602420087824a0096002000070020004d
:10093000860f5200878f5a005d013e00046001005f
:100940000900370076003700590137005801370099
:1009500057013700ea0037000a013700c7003700a7
:10096000160037000c0137006a02470004007800c7
:10097000530107006a0247000402e80004007800ff
:100980004f0107006a0247000482e8000400780073
:100990004b0107000042eb00544f98005e019000ad
:1009a000ee019000008020006b0107000160200034
:1009b0000080200092010700400137006e024700ce
:1009c000040078003e0107006e0247000402e800c0
:1009d000040078003a0107006e0247000482e80034
:1009e00004007800360107000042eb00145798001d
:1009f0000e0a9000e00f520004003a00fe02900040
:100a000004402000848f5200070032000e0a90003c
:100a1000e00f520007003a00fe0290000480200020
:100a2000848f520003003a0000c0eb0087010700ea
:100a30003a0037000e0a9000e00f52002f003a00f3
:100a40007e029000e00f52002c003a007e019000e0
:100a50008e099000008020003f01070000c8bf0001
:100a6000004f980024802000144278000400780091
:100a700000e8b7000e48900002e8b700348020007c
:100a800014427800044f98005480200014427800eb
:100a90000400780003e8b7000e48900005e8b700ae
:100aa00064002000040f7800050037000480200057
:100ab0009e02420000c2eb00844a78001e0fe8004c
:100ac000f45f20009e027800848f5200f7ff34000c
:100ad000fe0290000e0a9000220424008500780097
:100ae000040078005fff07007e0190008e099000ef
:100af000008020006101070006003700fe02900020
:100b00000e0a90002204240085007800040078007a
:100b100054ff070010c0b3004c010700e700370086
:100b20007202470004007800e500070072024700e7
:100b30000402e80004007800e100070072024700a8
:100b40000482e80004007800dd0007000042eb00aa
:100b5000545798000002eb00140798000800370073
:100b60009e0290000480200004824200040078006d
:100b7000d30007001e0290000402e800140798004a
:100b80009e029000f45f2000848f5200f4ff340036
:100b90002e0a9000e00f520004003a009e0a9000d6
:100ba00004402000848f5200070032002e0a90007b
:100bb000e00f520007003a009e0a900004802000d7
:100bc000848f520003003a0000c0eb001f010700b1
:100bd000290037002e0a9000e00f52001a003a0058
:100be0001e0a9000e00f520017003a007e024700f4
:100bf0001e099000ae09900004007800d60007009e
:100c00000e6290000400780000e8b7007e5a900061
:100c10000400780001e8b7006e5a900004007800e4
:100c200002e8b7003e6290000400780003e8b700d5
:100c30002e6290000400780004e8b7001e62900065
:100c40000400780005e8b7009e0a90002e0a900084
:100c500022042400850078000400780001ff0700ca
:100c60001e099000ae0990000080200003010700db
:100c700010c0b300f500070090003700040020000a
:100c8000f50f2000340f9800450f9800be0a900021
:100c90004e0a90008500780004007800eafe070004
:100ca0000002be00540f9800650f98007a024700ba
:100cb0004100200004007800d1000700240020003b
:100cc000f50f2000340f9800450f9800be0a9000e1
:100cd0004e0a90008500780004007800dafe0700d4
:100ce0000002be00540f9800650f98007a0247007a
:100cf0004100200004007800c10007006f003700a9
:100d00000002eb00240798001a003700ae029000a2
:100d10000480200004824200ae0290008502e800b8
:100d2000250798000400780065000700ae029000d7
:100d30000480200004824200ae0290008502e80098
:100d400025079800040078005d000700ae029000bf
:100d50000480200004824200ae0290008502e80078
:100d600025079800040078005500070010c0b30064
:100d7000b60007002e029000f70f5200e3ff340088
:100d80004e003700cbc2a90010c0b300af0007006f
:100d9000b1fe07004900370010c0b300ab000700e8
:100da000cbc2a90000902000d103200080010700e1
:100db0000042eb0074479800350037000042eb001a
:100dc0006447980013003700541680004e22de005e
:100dd0006142620004c2ea00614262000482fb00d8
:100de000610262004e22dd0056168000f5ff2b00e6
:100df00085026300048272005416880000482800af
:100e0000e10120006a0107006e4290000442e80000
:100e1000644798006e429000e54f5200eaff3600aa
:100e20000042eb006447980013003700541680001e
:100e30004e22de006142620004c2ea0061426200aa
:100e40000482fb00610262004e22dd005616800023
:100e5000f5ff2b008502630004827200541688009f
:100e600000d82800b1052000510107006e42900013
:100e70000442e800644798006e429000e54f52003b
:100e8000eaff36007e4290000442e8007447980072
:100e90007e429000e14f5200c8ff360000902000d3
:100ea000d103200042010700cbc2a8000300370095
:100eb00000c0eb00650007000000000090fe370056
:100ec0000200fa00000f7800010037000000000067
:100ed000250480000410200004826200e00f52000c
:100ee000040032009e02780084c0b300844a780077
:100ef000170037001411800064026200e00f5200f6
:100f000001003200110037001411800062026200fb
:100f1000e00f5200020032002222a9000b0037002d
:100f20001411800061026200e00f5200e7ff3200fe
:100f300011e1a90034118000044278009e0278007b
:100f4000844a78000000000001003700e0ff37000d
:100f50000080fa00000006000c00fa00300798003c
:100f600042079800530798000002eb00040f780036
:100f70001d003700ce0290005e02900085007800d0
:100f80000400780030fe07000002be00140798003d
:100f9000250798004e429000be029000844a7800d7
:100fa0003e0290008402e8003e429000844a7800ad
:100fb0003e0290008482e8002e429000844a78002d
:100fc0003e02900063024200340798004e029000f7
:100fd000de02900062024200e0824a00440798006c
:100fe000550798001e0fe800f41f20009e027800ad
:100ff000848f5200dfff34000080fa0000000600fa
:101000000600fa0010079800210798000002eb0084
:10101000040f7800070037001e0278009e0290003f
:101020000482420014427800044078000700070060
:101030001e0fe8002e0290009e027800848f52005e
:10104000f5ff35000080fa00000006000200fa00fb
:10105000004f7800000000001511800004102000ef
:1010600004826200e00f5200fbff32001e02fb0010
:10107000241188000080fa00000006001600fa0023
:10108000000f9800120f9800230f98000002eb0049
:10109000040f78000002eb00140798005800370096
:1010a0001e0290008e0a90000482420014427800d2
:1010b000444798001e0290000402e8008e0a900047
:1010c0000482420014427800544798001e029000a7
:1010d0000482e8008e0a90000482420014427800e4
:1010e000644798000042eb00744798001e0290008d
:1010f0006302420014079800ae0390003e03900084
:101100009e0a90002e0a9000870178000601780060
:101110008500780004007800c7fd07001e0b9000d2
:10112000ae0b9000f40120000500200006007800be
:101130000703780084037800050278000700600048
:101140000402630005002000c022dd00040020002e
:101150000403be006102b8000403730085837300ba
:101160008401200005002000840f5300858f5b0060
:1011700008003a001e0a9000ae0a9000440798004a
:10118000550798002e029000be0290006407980058
:10119000750798001e027800e00f5200110032001f
:1011a0001e02e80084027800f4032000048262003a
:1011b000e00f52000b003a00ee0390007e03900017
:1011c000ce0290005e029000870178000601780050
:1011d000850078000400780097fd070010002400c7
:1011e0008afd07001e0a9000ae0a900062024200cb
:1011f000e0824a00140f9800250f98001e0fe800a7
:10120000f41f20009e027800848f5200a4ff340057
:101210000080fa00000006000000fa002002a90089
:10122000041180000410a1000420a1000411880012
:1012300020a2a9002062a900a40020004411880077
:1012400021e2a8002342a8000080fa000000060066
:101250000400fa001061a8008500a9009500a9000b
:1012600004a0250025262000048fbe001e02900049
:10127000740888001e0278006408880011e1a80044
:081280000080fa0000000600e6
:020000040000fa
:1012880091018800800078000000eb00150037000d
:10129800e280400032a0b4009101ba00e280400030
:1012a80032a0b4009102ba00e280400032a0b4003b
:1012b8000002eb00472bde00f507b200602ce100ce
:1012c80004003a000059eb008301e900fdff3e00ed
:1012d800040037006128e100010032000082eb00c1
:1012e800040007001101ba000200e000e8ff3a001c
:1012f800000006003159ba008301e9000c003200f1
:101308002159ba008301e900080032000400e00016
:1013180003003a00e280400032a0b400f5ff370035
:1013280011d9ba008301e900faff3a008100e80008
:0c133800e180400032a0b400000006007c
:020000040000fa
:101344002fe020000eff27000e018800000000009f
:1013540000012000200288000c000700409f2000ac
:1013640001002000c7ff0700000020000000e0008b
:1013740002003200000002000000000050040200dd
:10138400000000000040da000000fe004440a90014
:10139400000020000000e0000300320000002000f4
:0c13a400a00188004440a80000000600e2
:020000040000fa
:1013b000f03fb1000180b10006003500ee030900e6
:1013c00000000000403fb1000180b100fbff3d0084
:1013d0001000b000203fb00002003500008009007e
:0813e0000000000000000600ff
:020000040000fa
:1013e80000080000020600000000000000000000e5
:020000040000fa
:0813f8000040da000000fe00d5
:020000040000fa
:0200000401f009
:04000800ffff0000f6
:020000040000fa
:0200000401f009
:04000c00fbff0000f6
:020000040000fa
:0200000401f009
:04001000fdff0000f0
:020000040000fa
:0200000401f009
:040014007fff00006a
:00000001FF
